:100000000C942A000C943C000C943C000C943C0092
:100010000C943C000C943C000C943C000C94FE01AD
:100020000C943C000C943C000C943C000C94AC01EF
:100030000C943C000C943C000C943C000C943C0050
:100040000C943C000C943C000C943C000C943C0040
:100050000C943C0011241FBECFE5D8E0DEBFCDBF1D
:1000600020E0A0E6B0E001C01D92A037B207E1F7A2
:100070000E9432010C943F020C9400004423B9F119
:10008000413009F06BC0813089F028F08230C9F02E
:10009000833011F108952AB381E090E002C0880F07
:1000A000991F6A95E2F7822B8ABB089527B381E0F6
:1000B00090E002C0880F991F6A95E2F7822B87BBF8
:1000C000089524B381E090E002C0880F991F6A95DB
:1000D000E2F7822B84BB089521B381E090E002C057
:1000E000880F991F6A95E2F7822B81BB08958130B2
:1000F00091F028F08230D9F0833029F108952AB3A5
:1001000081E090E002C0880F991F6A95E2F7809520
:1001100082238ABB089527B381E090E002C0880F54
:10012000991F6A95E2F78095822387BB089524B3CF
:1001300081E090E002C0880F991F6A95E2F78095F0
:10014000822384BB089521B381E090E002C0880F30
:10015000991F6A95E2F78095822381BB0895442315
:10016000B9F1413009F06BC0813089F028F082305C
:10017000C9F0833011F108952BB381E090E002C003
:10018000880F991F6A95E2F7822B8BBB089528B3DD
:1001900081E090E002C0880F991F6A95E2F7822BF8
:1001A00088BB089525B381E090E002C0880F991FB5
:1001B0006A95E2F7822B85BB089522B381E090E037
:1001C00002C0880F991F6A95E2F7822B82BB0895BF
:1001D000813091F028F08230D9F0833029F10895F0
:1001E0002BB381E090E002C0880F991F6A95E2F777
:1001F000809582238BBB089528B381E090E002C0F4
:10020000880F991F6A95E2F78095822388BB08952D
:1002100025B381E090E002C0880F991F6A95E2F74C
:100220008095822385BB089522B381E090E002C0CF
:10023000880F991F6A95E2F78095822382BB089503
:1002400041E064E081E00E943E00089541E064E006
:1002500081E00E94AF00089540E064E081E00E94E8
:10026000AF0008950E9420010E9447010E942C01C6
:1002700064EF71E080E090E00E9454010E9426014A
:1002800064EF71E080E090E00E945401EFCF83B70B
:10029000877F83BF83B78F7B83BF8FB780688FBF14
:1002A00089B7816089BF08950F931F939B01AC01AB
:1002B000A8EEB3E00E9425028B019C01689415F81A
:1002C00036952795179507951694D1F7DC01CB0144
:1002D000072E7EE0B695A795979587957A95D1F7E5
:1002E000702D8093680090936900A0936A00B0938A
:1002F0006B0080E091E0A0E0B0E0801B9109A109D3
:10030000B1098093640090936500A0936600B09358
:10031000670082BF8091640090916500A0916600A3
:10032000B0916700892B8A2B8B2B99F08091680004
:1003300090916900A0916A00B0916B000196A11D97
:10034000B11D8093680090936900A0936A00B093F8
:100350006B001F910F9108951F920F920FB60F928D
:1003600011242F933F934F935F936F937F938F93BA
:100370009F93AF93BF93EF93FF9380916000909111
:100380006100A0916200B09163000196A11DB11DB2
:100390008093600090936100A0936200B09363002B
:1003A000409168005091690060916A0070916B0003
:1003B00084179507A607B70781F410926000109282
:1003C00061001092620010926300E0916E00F09163
:1003D0006F0009958091640082BFFF91EF91BF91FA
:1003E000AF919F918F917F916F915F914F913F91CD
:1003F0002F910F900FBE0F901F9018951F920F9284
:100400000FB60F9211242F933F934F935F936F93E7
:100410007F938F939F93AF93BF93EF93FF93E0915D
:100420006C00F0916D000995FF91EF91BF91AF9134
:100430009F918F917F916F915F914F913F912F91FC
:100440000F900FBE0F901F9018950E943002A59F2D
:10045000900DB49F900DA49F800D911D11240895BF
:10046000A29FB001B39FC001A39F700D811D1124F5
:10047000911DB29F700D811D1124911D0895F89456
:02048000FFCFAC
:00000001FF
